{
  "_format": "hh-sol-artifact-1",
  "contractName": "Voting",
  "sourceName": "contracts/Voting.sol",
  "abi": [
    {
      "anonymous": false,
      "inputs": [
        {
          "indexed": false,
          "internalType": "uint256",
          "name": "pollId",
          "type": "uint256"
        }
      ],
      "name": "PollClosed",
      "type": "event"
    },
    {
      "anonymous": false,
      "inputs": [
        {
          "indexed": false,
          "internalType": "uint256",
          "name": "pollId",
          "type": "uint256"
        },
        {
          "indexed": false,
          "internalType": "address",
          "name": "creator",
          "type": "address"
        }
      ],
      "name": "PollCreated",
      "type": "event"
    },
    {
      "anonymous": false,
      "inputs": [
        {
          "indexed": false,
          "internalType": "uint256",
          "name": "pollId",
          "type": "uint256"
        },
        {
          "indexed": false,
          "internalType": "uint256",
          "name": "optionId",
          "type": "uint256"
        }
      ],
      "name": "VoteCasted",
      "type": "event"
    },
    {
      "inputs": [
        {
          "internalType": "uint256",
          "name": "pollId",
          "type": "uint256"
        },
        {
          "internalType": "bytes32[]",
          "name": "tokenHashes",
          "type": "bytes32[]"
        }
      ],
      "name": "addValidTokens",
      "outputs": [],
      "stateMutability": "nonpayable",
      "type": "function"
    },
    {
      "inputs": [
        {
          "internalType": "uint256",
          "name": "pollId",
          "type": "uint256"
        }
      ],
      "name": "closePoll",
      "outputs": [],
      "stateMutability": "nonpayable",
      "type": "function"
    },
    {
      "inputs": [
        {
          "internalType": "bool",
          "name": "allowLiveResults",
          "type": "bool"
        },
        {
          "internalType": "uint256",
          "name": "optionCount",
          "type": "uint256"
        }
      ],
      "name": "createPoll",
      "outputs": [],
      "stateMutability": "nonpayable",
      "type": "function"
    },
    {
      "inputs": [
        {
          "internalType": "uint256",
          "name": "pollId",
          "type": "uint256"
        }
      ],
      "name": "getResults",
      "outputs": [
        {
          "internalType": "uint256[]",
          "name": "",
          "type": "uint256[]"
        }
      ],
      "stateMutability": "view",
      "type": "function"
    },
    {
      "inputs": [],
      "name": "pollCount",
      "outputs": [
        {
          "internalType": "uint256",
          "name": "",
          "type": "uint256"
        }
      ],
      "stateMutability": "view",
      "type": "function"
    },
    {
      "inputs": [
        {
          "internalType": "uint256",
          "name": "",
          "type": "uint256"
        }
      ],
      "name": "polls",
      "outputs": [
        {
          "internalType": "address",
          "name": "creator",
          "type": "address"
        },
        {
          "internalType": "bool",
          "name": "allowLiveResults",
          "type": "bool"
        },
        {
          "internalType": "bool",
          "name": "isActive",
          "type": "bool"
        },
        {
          "internalType": "uint256",
          "name": "optionCount",
          "type": "uint256"
        }
      ],
      "stateMutability": "view",
      "type": "function"
    },
    {
      "inputs": [
        {
          "internalType": "uint256",
          "name": "",
          "type": "uint256"
        },
        {
          "internalType": "bytes32",
          "name": "",
          "type": "bytes32"
        }
      ],
      "name": "usedTokens",
      "outputs": [
        {
          "internalType": "bool",
          "name": "",
          "type": "bool"
        }
      ],
      "stateMutability": "view",
      "type": "function"
    },
    {
      "inputs": [
        {
          "internalType": "uint256",
          "name": "",
          "type": "uint256"
        },
        {
          "internalType": "bytes32",
          "name": "",
          "type": "bytes32"
        }
      ],
      "name": "validTokens",
      "outputs": [
        {
          "internalType": "bool",
          "name": "",
          "type": "bool"
        }
      ],
      "stateMutability": "view",
      "type": "function"
    },
    {
      "inputs": [
        {
          "internalType": "uint256",
          "name": "pollId",
          "type": "uint256"
        },
        {
          "internalType": "string",
          "name": "rawToken",
          "type": "string"
        },
        {
          "internalType": "uint256",
          "name": "optionId",
          "type": "uint256"
        }
      ],
      "name": "vote",
      "outputs": [],
      "stateMutability": "nonpayable",
      "type": "function"
    },
    {
      "inputs": [
        {
          "internalType": "uint256",
          "name": "",
          "type": "uint256"
        },
        {
          "internalType": "uint256",
          "name": "",
          "type": "uint256"
        }
      ],
      "name": "voteCounts",
      "outputs": [
        {
          "internalType": "uint256",
          "name": "",
          "type": "uint256"
        }
      ],
      "stateMutability": "view",
      "type": "function"
    }
  ],
  "bytecode": "0x6080604052348015600f57600080fd5b5061172a8061001f6000396000f3fe608060405234801561001057600080fd5b506004361061009e5760003560e01c80639534e637116100665780639534e6371461016d578063ac2f007414610189578063c3fec13c146101bc578063d2daa1c2146101d8578063f0f45457146102085761009e565b80630a0e207e146100a35780631cb8bd4a146100d357806336fdbb401461010357806381a60c0d1461011f5780639207891d1461014f575b600080fd5b6100bd60048036038101906100b89190610bdf565b610224565b6040516100ca9190610c3a565b60405180910390f35b6100ed60048036038101906100e89190610bdf565b610253565b6040516100fa9190610c3a565b60405180910390f35b61011d60048036038101906101189190610dae565b610282565b005b61013960048036038101906101349190610e0a565b6103fe565b6040516101469190610ef5565b60405180910390f35b61015761055e565b6040516101649190610f26565b60405180910390f35b61018760048036038101906101829190610e0a565b610564565b005b6101a3600480360381019061019e9190610e0a565b6106d4565b6040516101b39493929190610f82565b60405180910390f35b6101d660048036038101906101d19190610ff3565b61073e565b005b6101f260048036038101906101ed9190611033565b6108bb565b6040516101ff9190610f26565b60405180910390f35b610222600480360381019061021d9190611128565b6108e0565b005b60026020528160005260406000206020528060005260406000206000915091509054906101000a900460ff1681565b60036020528160005260406000206020528060005260406000206000915091509054906101000a900460ff1681565b6001600083815260200190815260200160002060000160009054906101000a900473ffffffffffffffffffffffffffffffffffffffff1673ffffffffffffffffffffffffffffffffffffffff163373ffffffffffffffffffffffffffffffffffffffff1614610326576040517f08c379a000000000000000000000000000000000000000000000000000000000815260040161031d906111f4565b60405180910390fd5b6001600083815260200190815260200160002060000160159054906101000a900460ff16610389576040517f08c379a000000000000000000000000000000000000000000000000000000000815260040161038090611260565b60405180910390fd5b60005b81518110156103f95760016002600085815260200190815260200160002060008484815181106103bf576103be611280565b5b6020026020010151815260200190815260200160002060006101000a81548160ff021916908315150217905550808060010191505061038c565b505050565b60606001600083815260200190815260200160002060000160149054906101000a900460ff168061045057506001600083815260200190815260200160002060000160159054906101000a900460ff16155b61048f576040517f08c379a0000000000000000000000000000000000000000000000000000000008152600401610486906112fb565b60405180910390fd5b60006001600084815260200190815260200160002060010154905060008167ffffffffffffffff8111156104c6576104c5610c6b565b5b6040519080825280602002602001820160405280156104f45781602001602082028036833780820191505090505b50905060005b82811015610553576004600086815260200190815260200160002060008281526020019081526020016000205482828151811061053a57610539611280565b5b60200260200101818152505080806001019150506104fa565b508092505050919050565b60005481565b6001600082815260200190815260200160002060000160009054906101000a900473ffffffffffffffffffffffffffffffffffffffff1673ffffffffffffffffffffffffffffffffffffffff163373ffffffffffffffffffffffffffffffffffffffff1614610608576040517f08c379a00000000000000000000000000000000000000000000000000000000081526004016105ff90611367565b60405180910390fd5b6001600082815260200190815260200160002060000160159054906101000a900460ff1661066b576040517f08c379a0000000000000000000000000000000000000000000000000000000008152600401610662906113d3565b60405180910390fd5b60006001600083815260200190815260200160002060000160156101000a81548160ff0219169083151502179055507f703c67c157a1afb7d386ce5212ee88bf0a690bca998060e9595ebdfd747100ce816040516106c99190610f26565b60405180910390a150565b60016020528060005260406000206000915090508060000160009054906101000a900473ffffffffffffffffffffffffffffffffffffffff16908060000160149054906101000a900460ff16908060000160159054906101000a900460ff16908060010154905084565b60018111610781576040517f08c379a00000000000000000000000000000000000000000000000000000000081526004016107789061143f565b60405180910390fd5b60405180608001604052803373ffffffffffffffffffffffffffffffffffffffff168152602001831515815260200160011515815260200182815250600160008054815260200190815260200160002060008201518160000160006101000a81548173ffffffffffffffffffffffffffffffffffffffff021916908373ffffffffffffffffffffffffffffffffffffffff16021790555060208201518160000160146101000a81548160ff02191690831515021790555060408201518160000160156101000a81548160ff021916908315150217905550606082015181600101559050507fb447d309fd3b1a27466cdb08ccc02ee5188e9c71fc58af042bafe3e0bb4512306000543360405161089892919061145f565b60405180910390a16000808154809291906108b2906114b7565b91905055505050565b6004602052816000526040600020602052806000526040600020600091509150505481565b6001600084815260200190815260200160002060000160159054906101000a900460ff16610943576040517f08c379a000000000000000000000000000000000000000000000000000000000815260040161093a90611260565b60405180910390fd5b6001600084815260200190815260200160002060010154811061099b576040517f08c379a00000000000000000000000000000000000000000000000000000000081526004016109929061154b565b60405180910390fd5b6000826040516020016109ae91906115dc565b60405160208183030381529060405280519060200120905060026000858152602001908152602001600020600082815260200190815260200160002060009054906101000a900460ff16610a37576040517f08c379a0000000000000000000000000000000000000000000000000000000008152600401610a2e9061163f565b60405180910390fd5b60036000858152602001908152602001600020600082815260200190815260200160002060009054906101000a900460ff1615610aa9576040517f08c379a0000000000000000000000000000000000000000000000000000000008152600401610aa0906116ab565b60405180910390fd5b600160036000868152602001908152602001600020600083815260200190815260200160002060006101000a81548160ff0219169083151502179055506004600085815260200190815260200160002060008381526020019081526020016000206000815480929190610b1b906114b7565b91905055507f5d4760119c8e8650149aac097d38c70515dfce015031561ad115606533e479be8483604051610b519291906116cb565b60405180910390a150505050565b6000604051905090565b600080fd5b600080fd5b6000819050919050565b610b8681610b73565b8114610b9157600080fd5b50565b600081359050610ba381610b7d565b92915050565b6000819050919050565b610bbc81610ba9565b8114610bc757600080fd5b50565b600081359050610bd981610bb3565b92915050565b60008060408385031215610bf657610bf5610b69565b5b6000610c0485828601610b94565b9250506020610c1585828601610bca565b9150509250929050565b60008115159050919050565b610c3481610c1f565b82525050565b6000602082019050610c4f6000830184610c2b565b92915050565b600080fd5b6000601f19601f8301169050919050565b7f4e487b7100000000000000000000000000000000000000000000000000000000600052604160045260246000fd5b610ca382610c5a565b810181811067ffffffffffffffff82111715610cc257610cc1610c6b565b5b80604052505050565b6000610cd5610b5f565b9050610ce18282610c9a565b919050565b600067ffffffffffffffff821115610d0157610d00610c6b565b5b602082029050602081019050919050565b600080fd5b6000610d2a610d2584610ce6565b610ccb565b90508083825260208201905060208402830185811115610d4d57610d4c610d12565b5b835b81811015610d765780610d628882610bca565b845260208401935050602081019050610d4f565b5050509392505050565b600082601f830112610d9557610d94610c55565b5b8135610da5848260208601610d17565b91505092915050565b60008060408385031215610dc557610dc4610b69565b5b6000610dd385828601610b94565b925050602083013567ffffffffffffffff811115610df457610df3610b6e565b5b610e0085828601610d80565b9150509250929050565b600060208284031215610e2057610e1f610b69565b5b6000610e2e84828501610b94565b91505092915050565b600081519050919050565b600082825260208201905092915050565b6000819050602082019050919050565b610e6c81610b73565b82525050565b6000610e7e8383610e63565b60208301905092915050565b6000602082019050919050565b6000610ea282610e37565b610eac8185610e42565b9350610eb783610e53565b8060005b83811015610ee8578151610ecf8882610e72565b9750610eda83610e8a565b925050600181019050610ebb565b5085935050505092915050565b60006020820190508181036000830152610f0f8184610e97565b905092915050565b610f2081610b73565b82525050565b6000602082019050610f3b6000830184610f17565b92915050565b600073ffffffffffffffffffffffffffffffffffffffff82169050919050565b6000610f6c82610f41565b9050919050565b610f7c81610f61565b82525050565b6000608082019050610f976000830187610f73565b610fa46020830186610c2b565b610fb16040830185610c2b565b610fbe6060830184610f17565b95945050505050565b610fd081610c1f565b8114610fdb57600080fd5b50565b600081359050610fed81610fc7565b92915050565b6000806040838503121561100a57611009610b69565b5b600061101885828601610fde565b925050602061102985828601610b94565b9150509250929050565b6000806040838503121561104a57611049610b69565b5b600061105885828601610b94565b925050602061106985828601610b94565b9150509250929050565b600080fd5b600067ffffffffffffffff82111561109357611092610c6b565b5b61109c82610c5a565b9050602081019050919050565b82818337600083830152505050565b60006110cb6110c684611078565b610ccb565b9050828152602081018484840111156110e7576110e6611073565b5b6110f28482856110a9565b509392505050565b600082601f83011261110f5761110e610c55565b5b813561111f8482602086016110b8565b91505092915050565b60008060006060848603121561114157611140610b69565b5b600061114f86828701610b94565b935050602084013567ffffffffffffffff8111156111705761116f610b6e565b5b61117c868287016110fa565b925050604061118d86828701610b94565b9150509250925092565b600082825260208201905092915050565b7f4f6e6c7920706f6c6c2063726561746f722063616e2061646420746f6b656e73600082015250565b60006111de602083611197565b91506111e9826111a8565b602082019050919050565b6000602082019050818103600083015261120d816111d1565b9050919050565b7f506f6c6c20697320636c6f736564000000000000000000000000000000000000600082015250565b600061124a600e83611197565b915061125582611214565b602082019050919050565b600060208201905081810360008301526112798161123d565b9050919050565b7f4e487b7100000000000000000000000000000000000000000000000000000000600052603260045260246000fd5b7f4c69766520726573756c7473206e6f7420616c6c6f776564207965742e000000600082015250565b60006112e5601d83611197565b91506112f0826112af565b602082019050919050565b60006020820190508181036000830152611314816112d8565b9050919050565b7f4e6f742074686520706f6c6c2063726561746f72000000000000000000000000600082015250565b6000611351601483611197565b915061135c8261131b565b602082019050919050565b6000602082019050818103600083015261138081611344565b9050919050565b7f506f6c6c20616c726561647920636c6f73656400000000000000000000000000600082015250565b60006113bd601383611197565b91506113c882611387565b602082019050919050565b600060208201905081810360008301526113ec816113b0565b9050919050565b7f4d7573742068617665206174206c656173742032206f7074696f6e7300000000600082015250565b6000611429601c83611197565b9150611434826113f3565b602082019050919050565b600060208201905081810360008301526114588161141c565b9050919050565b60006040820190506114746000830185610f17565b6114816020830184610f73565b9392505050565b7f4e487b7100000000000000000000000000000000000000000000000000000000600052601160045260246000fd5b60006114c282610b73565b91507fffffffffffffffffffffffffffffffffffffffffffffffffffffffffffffffff82036114f4576114f3611488565b5b600182019050919050565b7f496e76616c6964206f7074696f6e000000000000000000000000000000000000600082015250565b6000611535600e83611197565b9150611540826114ff565b602082019050919050565b6000602082019050818103600083015261156481611528565b9050919050565b600081519050919050565b600081905092915050565b60005b8381101561159f578082015181840152602081019050611584565b60008484015250505050565b60006115b68261156b565b6115c08185611576565b93506115d0818560208601611581565b80840191505092915050565b60006115e882846115ab565b915081905092915050565b7f496e76616c696420746f6b656e00000000000000000000000000000000000000600082015250565b6000611629600d83611197565b9150611634826115f3565b602082019050919050565b600060208201905081810360008301526116588161161c565b9050919050565b7f546f6b656e20616c726561647920757365640000000000000000000000000000600082015250565b6000611695601283611197565b91506116a08261165f565b602082019050919050565b600060208201905081810360008301526116c481611688565b9050919050565b60006040820190506116e06000830185610f17565b6116ed6020830184610f17565b939250505056fea2646970667358221220d3ed5921be0783be15afc3da7bedd5299394ec557baa95d6375a47c510917f1964736f6c634300081c0033",
  "linkReferences": {},
  "deployedLinkReferences": {}
}