{"contracts/Voting.sol":{"Voting":{"abi":[{"anonymous":false,"inputs":[{"indexed":false,"internalType":"uint256","name":"pollId","type":"uint256"}],"name":"PollClosed","type":"event"},{"anonymous":false,"inputs":[{"indexed":false,"internalType":"uint256","name":"pollId","type":"uint256"},{"indexed":false,"internalType":"address","name":"creator","type":"address"}],"name":"PollCreated","type":"event"},{"anonymous":false,"inputs":[{"indexed":false,"internalType":"uint256","name":"pollId","type":"uint256"},{"indexed":false,"internalType":"uint256","name":"optionId","type":"uint256"}],"name":"VoteCasted","type":"event"},{"inputs":[{"internalType":"uint256","name":"pollId","type":"uint256"},{"internalType":"bytes32[]","name":"tokenHashes","type":"bytes32[]"}],"name":"addValidTokens","outputs":[],"stateMutability":"nonpayable","type":"function"},{"inputs":[{"internalType":"uint256","name":"pollId","type":"uint256"}],"name":"closePoll","outputs":[],"stateMutability":"nonpayable","type":"function"},{"inputs":[{"internalType":"bool","name":"allowLiveResults","type":"bool"},{"internalType":"uint256","name":"optionCount","type":"uint256"}],"name":"createPoll","outputs":[],"stateMutability":"nonpayable","type":"function"},{"inputs":[{"internalType":"uint256","name":"pollId","type":"uint256"}],"name":"getResults","outputs":[{"internalType":"uint256[]","name":"","type":"uint256[]"}],"stateMutability":"view","type":"function"},{"inputs":[],"name":"pollCount","outputs":[{"internalType":"uint256","name":"","type":"uint256"}],"stateMutability":"view","type":"function"},{"inputs":[{"internalType":"uint256","name":"","type":"uint256"}],"name":"polls","outputs":[{"internalType":"address","name":"creator","type":"address"},{"internalType":"bool","name":"allowLiveResults","type":"bool"},{"internalType":"bool","name":"isActive","type":"bool"},{"internalType":"uint256","name":"optionCount","type":"uint256"}],"stateMutability":"view","type":"function"},{"inputs":[{"internalType":"uint256","name":"","type":"uint256"},{"internalType":"bytes32","name":"","type":"bytes32"}],"name":"usedTokens","outputs":[{"internalType":"bool","name":"","type":"bool"}],"stateMutability":"view","type":"function"},{"inputs":[{"internalType":"uint256","name":"","type":"uint256"},{"internalType":"bytes32","name":"","type":"bytes32"}],"name":"validTokens","outputs":[{"internalType":"bool","name":"","type":"bool"}],"stateMutability":"view","type":"function"},{"inputs":[{"internalType":"uint256","name":"pollId","type":"uint256"},{"internalType":"string","name":"rawToken","type":"string"},{"internalType":"uint256","name":"optionId","type":"uint256"}],"name":"vote","outputs":[],"stateMutability":"nonpayable","type":"function"},{"inputs":[{"internalType":"uint256","name":"","type":"uint256"},{"internalType":"uint256","name":"","type":"uint256"}],"name":"voteCounts","outputs":[{"internalType":"uint256","name":"","type":"uint256"}],"stateMutability":"view","type":"function"}],"evm":{"bytecode":{"linkReferences":{},"object":"6080604052348015600f57600080fd5b5061172a8061001f6000396000f3fe608060405234801561001057600080fd5b506004361061009e5760003560e01c80639534e637116100665780639534e6371461016d578063ac2f007414610189578063c3fec13c146101bc578063d2daa1c2146101d8578063f0f45457146102085761009e565b80630a0e207e146100a35780631cb8bd4a146100d357806336fdbb401461010357806381a60c0d1461011f5780639207891d1461014f575b600080fd5b6100bd60048036038101906100b89190610bdf565b610224565b6040516100ca9190610c3a565b60405180910390f35b6100ed60048036038101906100e89190610bdf565b610253565b6040516100fa9190610c3a565b60405180910390f35b61011d60048036038101906101189190610dae565b610282565b005b61013960048036038101906101349190610e0a565b6103fe565b6040516101469190610ef5565b60405180910390f35b61015761055e565b6040516101649190610f26565b60405180910390f35b61018760048036038101906101829190610e0a565b610564565b005b6101a3600480360381019061019e9190610e0a565b6106d4565b6040516101b39493929190610f82565b60405180910390f35b6101d660048036038101906101d19190610ff3565b61073e565b005b6101f260048036038101906101ed9190611033565b6108bb565b6040516101ff9190610f26565b60405180910390f35b610222600480360381019061021d9190611128565b6108e0565b005b60026020528160005260406000206020528060005260406000206000915091509054906101000a900460ff1681565b60036020528160005260406000206020528060005260406000206000915091509054906101000a900460ff1681565b6001600083815260200190815260200160002060000160009054906101000a900473ffffffffffffffffffffffffffffffffffffffff1673ffffffffffffffffffffffffffffffffffffffff163373ffffffffffffffffffffffffffffffffffffffff1614610326576040517f08c379a000000000000000000000000000000000000000000000000000000000815260040161031d906111f4565b60405180910390fd5b6001600083815260200190815260200160002060000160159054906101000a900460ff16610389576040517f08c379a000000000000000000000000000000000000000000000000000000000815260040161038090611260565b60405180910390fd5b60005b81518110156103f95760016002600085815260200190815260200160002060008484815181106103bf576103be611280565b5b6020026020010151815260200190815260200160002060006101000a81548160ff021916908315150217905550808060010191505061038c565b505050565b60606001600083815260200190815260200160002060000160149054906101000a900460ff168061045057506001600083815260200190815260200160002060000160159054906101000a900460ff16155b61048f576040517f08c379a0000000000000000000000000000000000000000000000000000000008152600401610486906112fb565b60405180910390fd5b60006001600084815260200190815260200160002060010154905060008167ffffffffffffffff8111156104c6576104c5610c6b565b5b6040519080825280602002602001820160405280156104f45781602001602082028036833780820191505090505b50905060005b82811015610553576004600086815260200190815260200160002060008281526020019081526020016000205482828151811061053a57610539611280565b5b60200260200101818152505080806001019150506104fa565b508092505050919050565b60005481565b6001600082815260200190815260200160002060000160009054906101000a900473ffffffffffffffffffffffffffffffffffffffff1673ffffffffffffffffffffffffffffffffffffffff163373ffffffffffffffffffffffffffffffffffffffff1614610608576040517f08c379a00000000000000000000000000000000000000000000000000000000081526004016105ff90611367565b60405180910390fd5b6001600082815260200190815260200160002060000160159054906101000a900460ff1661066b576040517f08c379a0000000000000000000000000000000000000000000000000000000008152600401610662906113d3565b60405180910390fd5b60006001600083815260200190815260200160002060000160156101000a81548160ff0219169083151502179055507f703c67c157a1afb7d386ce5212ee88bf0a690bca998060e9595ebdfd747100ce816040516106c99190610f26565b60405180910390a150565b60016020528060005260406000206000915090508060000160009054906101000a900473ffffffffffffffffffffffffffffffffffffffff16908060000160149054906101000a900460ff16908060000160159054906101000a900460ff16908060010154905084565b60018111610781576040517f08c379a00000000000000000000000000000000000000000000000000000000081526004016107789061143f565b60405180910390fd5b60405180608001604052803373ffffffffffffffffffffffffffffffffffffffff168152602001831515815260200160011515815260200182815250600160008054815260200190815260200160002060008201518160000160006101000a81548173ffffffffffffffffffffffffffffffffffffffff021916908373ffffffffffffffffffffffffffffffffffffffff16021790555060208201518160000160146101000a81548160ff02191690831515021790555060408201518160000160156101000a81548160ff021916908315150217905550606082015181600101559050507fb447d309fd3b1a27466cdb08ccc02ee5188e9c71fc58af042bafe3e0bb4512306000543360405161089892919061145f565b60405180910390a16000808154809291906108b2906114b7565b91905055505050565b6004602052816000526040600020602052806000526040600020600091509150505481565b6001600084815260200190815260200160002060000160159054906101000a900460ff16610943576040517f08c379a000000000000000000000000000000000000000000000000000000000815260040161093a90611260565b60405180910390fd5b6001600084815260200190815260200160002060010154811061099b576040517f08c379a00000000000000000000000000000000000000000000000000000000081526004016109929061154b565b60405180910390fd5b6000826040516020016109ae91906115dc565b60405160208183030381529060405280519060200120905060026000858152602001908152602001600020600082815260200190815260200160002060009054906101000a900460ff16610a37576040517f08c379a0000000000000000000000000000000000000000000000000000000008152600401610a2e9061163f565b60405180910390fd5b60036000858152602001908152602001600020600082815260200190815260200160002060009054906101000a900460ff1615610aa9576040517f08c379a0000000000000000000000000000000000000000000000000000000008152600401610aa0906116ab565b60405180910390fd5b600160036000868152602001908152602001600020600083815260200190815260200160002060006101000a81548160ff0219169083151502179055506004600085815260200190815260200160002060008381526020019081526020016000206000815480929190610b1b906114b7565b91905055507f5d4760119c8e8650149aac097d38c70515dfce015031561ad115606533e479be8483604051610b519291906116cb565b60405180910390a150505050565b6000604051905090565b600080fd5b600080fd5b6000819050919050565b610b8681610b73565b8114610b9157600080fd5b50565b600081359050610ba381610b7d565b92915050565b6000819050919050565b610bbc81610ba9565b8114610bc757600080fd5b50565b600081359050610bd981610bb3565b92915050565b60008060408385031215610bf657610bf5610b69565b5b6000610c0485828601610b94565b9250506020610c1585828601610bca565b9150509250929050565b60008115159050919050565b610c3481610c1f565b82525050565b6000602082019050610c4f6000830184610c2b565b92915050565b600080fd5b6000601f19601f8301169050919050565b7f4e487b7100000000000000000000000000000000000000000000000000000000600052604160045260246000fd5b610ca382610c5a565b810181811067ffffffffffffffff82111715610cc257610cc1610c6b565b5b80604052505050565b6000610cd5610b5f565b9050610ce18282610c9a565b919050565b600067ffffffffffffffff821115610d0157610d00610c6b565b5b602082029050602081019050919050565b600080fd5b6000610d2a610d2584610ce6565b610ccb565b90508083825260208201905060208402830185811115610d4d57610d4c610d12565b5b835b81811015610d765780610d628882610bca565b845260208401935050602081019050610d4f565b5050509392505050565b600082601f830112610d9557610d94610c55565b5b8135610da5848260208601610d17565b91505092915050565b60008060408385031215610dc557610dc4610b69565b5b6000610dd385828601610b94565b925050602083013567ffffffffffffffff811115610df457610df3610b6e565b5b610e0085828601610d80565b9150509250929050565b600060208284031215610e2057610e1f610b69565b5b6000610e2e84828501610b94565b91505092915050565b600081519050919050565b600082825260208201905092915050565b6000819050602082019050919050565b610e6c81610b73565b82525050565b6000610e7e8383610e63565b60208301905092915050565b6000602082019050919050565b6000610ea282610e37565b610eac8185610e42565b9350610eb783610e53565b8060005b83811015610ee8578151610ecf8882610e72565b9750610eda83610e8a565b925050600181019050610ebb565b5085935050505092915050565b60006020820190508181036000830152610f0f8184610e97565b905092915050565b610f2081610b73565b82525050565b6000602082019050610f3b6000830184610f17565b92915050565b600073ffffffffffffffffffffffffffffffffffffffff82169050919050565b6000610f6c82610f41565b9050919050565b610f7c81610f61565b82525050565b6000608082019050610f976000830187610f73565b610fa46020830186610c2b565b610fb16040830185610c2b565b610fbe6060830184610f17565b95945050505050565b610fd081610c1f565b8114610fdb57600080fd5b50565b600081359050610fed81610fc7565b92915050565b6000806040838503121561100a57611009610b69565b5b600061101885828601610fde565b925050602061102985828601610b94565b9150509250929050565b6000806040838503121561104a57611049610b69565b5b600061105885828601610b94565b925050602061106985828601610b94565b9150509250929050565b600080fd5b600067ffffffffffffffff82111561109357611092610c6b565b5b61109c82610c5a565b9050602081019050919050565b82818337600083830152505050565b60006110cb6110c684611078565b610ccb565b9050828152602081018484840111156110e7576110e6611073565b5b6110f28482856110a9565b509392505050565b600082601f83011261110f5761110e610c55565b5b813561111f8482602086016110b8565b91505092915050565b60008060006060848603121561114157611140610b69565b5b600061114f86828701610b94565b935050602084013567ffffffffffffffff8111156111705761116f610b6e565b5b61117c868287016110fa565b925050604061118d86828701610b94565b9150509250925092565b600082825260208201905092915050565b7f4f6e6c7920706f6c6c2063726561746f722063616e2061646420746f6b656e73600082015250565b60006111de602083611197565b91506111e9826111a8565b602082019050919050565b6000602082019050818103600083015261120d816111d1565b9050919050565b7f506f6c6c20697320636c6f736564000000000000000000000000000000000000600082015250565b600061124a600e83611197565b915061125582611214565b602082019050919050565b600060208201905081810360008301526112798161123d565b9050919050565b7f4e487b7100000000000000000000000000000000000000000000000000000000600052603260045260246000fd5b7f4c69766520726573756c7473206e6f7420616c6c6f776564207965742e000000600082015250565b60006112e5601d83611197565b91506112f0826112af565b602082019050919050565b60006020820190508181036000830152611314816112d8565b9050919050565b7f4e6f742074686520706f6c6c2063726561746f72000000000000000000000000600082015250565b6000611351601483611197565b915061135c8261131b565b602082019050919050565b6000602082019050818103600083015261138081611344565b9050919050565b7f506f6c6c20616c726561647920636c6f73656400000000000000000000000000600082015250565b60006113bd601383611197565b91506113c882611387565b602082019050919050565b600060208201905081810360008301526113ec816113b0565b9050919050565b7f4d7573742068617665206174206c656173742032206f7074696f6e7300000000600082015250565b6000611429601c83611197565b9150611434826113f3565b602082019050919050565b600060208201905081810360008301526114588161141c565b9050919050565b60006040820190506114746000830185610f17565b6114816020830184610f73565b9392505050565b7f4e487b7100000000000000000000000000000000000000000000000000000000600052601160045260246000fd5b60006114c282610b73565b91507fffffffffffffffffffffffffffffffffffffffffffffffffffffffffffffffff82036114f4576114f3611488565b5b600182019050919050565b7f496e76616c6964206f7074696f6e000000000000000000000000000000000000600082015250565b6000611535600e83611197565b9150611540826114ff565b602082019050919050565b6000602082019050818103600083015261156481611528565b9050919050565b600081519050919050565b600081905092915050565b60005b8381101561159f578082015181840152602081019050611584565b60008484015250505050565b60006115b68261156b565b6115c08185611576565b93506115d0818560208601611581565b80840191505092915050565b60006115e882846115ab565b915081905092915050565b7f496e76616c696420746f6b656e00000000000000000000000000000000000000600082015250565b6000611629600d83611197565b9150611634826115f3565b602082019050919050565b600060208201905081810360008301526116588161161c565b9050919050565b7f546f6b656e20616c726561647920757365640000000000000000000000000000600082015250565b6000611695601283611197565b91506116a08261165f565b602082019050919050565b600060208201905081810360008301526116c481611688565b9050919050565b60006040820190506116e06000830185610f17565b6116ed6020830184610f17565b939250505056fea2646970667358221220d3ed5921be0783be15afc3da7bedd5299394ec557baa95d6375a47c510917f1964736f6c634300081c0033","opcodes":"PUSH1 0x80 PUSH1 0x40 MSTORE CALLVALUE DUP1 ISZERO PUSH1 0xF JUMPI PUSH1 0x0 DUP1 REVERT JUMPDEST POP PUSH2 0x172A DUP1 PUSH2 0x1F PUSH1 0x0 CODECOPY PUSH1 0x0 RETURN INVALID PUSH1 0x80 PUSH1 0x40 MSTORE CALLVALUE DUP1 ISZERO PUSH2 0x10 JUMPI PUSH1 0x0 DUP1 REVERT JUMPDEST POP PUSH1 0x4 CALLDATASIZE LT PUSH2 0x9E JUMPI PUSH1 0x0 CALLDATALOAD PUSH1 0xE0 SHR DUP1 PUSH4 0x9534E637 GT PUSH2 0x66 JUMPI DUP1 PUSH4 0x9534E637 EQ PUSH2 0x16D JUMPI DUP1 PUSH4 0xAC2F0074 EQ PUSH2 0x189 JUMPI DUP1 PUSH4 0xC3FEC13C EQ PUSH2 0x1BC JUMPI DUP1 PUSH4 0xD2DAA1C2 EQ PUSH2 0x1D8 JUMPI DUP1 PUSH4 0xF0F45457 EQ PUSH2 0x208 JUMPI PUSH2 0x9E JUMP JUMPDEST DUP1 PUSH4 0xA0E207E EQ PUSH2 0xA3 JUMPI DUP1 PUSH4 0x1CB8BD4A EQ PUSH2 0xD3 JUMPI DUP1 PUSH4 0x36FDBB40 EQ PUSH2 0x103 JUMPI DUP1 PUSH4 0x81A60C0D EQ PUSH2 0x11F JUMPI DUP1 PUSH4 0x9207891D EQ PUSH2 0x14F JUMPI JUMPDEST PUSH1 0x0 DUP1 REVERT JUMPDEST PUSH2 0xBD PUSH1 0x4 DUP1 CALLDATASIZE SUB DUP2 ADD SWAP1 PUSH2 0xB8 SWAP2 SWAP1 PUSH2 0xBDF JUMP JUMPDEST PUSH2 0x224 JUMP JUMPDEST PUSH1 0x40 MLOAD PUSH2 0xCA SWAP2 SWAP1 PUSH2 0xC3A JUMP JUMPDEST PUSH1 0x40 MLOAD DUP1 SWAP2 SUB SWAP1 RETURN JUMPDEST PUSH2 0xED PUSH1 0x4 DUP1 CALLDATASIZE SUB DUP2 ADD SWAP1 PUSH2 0xE8 SWAP2 SWAP1 PUSH2 0xBDF JUMP JUMPDEST PUSH2 0x253 JUMP JUMPDEST PUSH1 0x40 MLOAD PUSH2 0xFA SWAP2 SWAP1 PUSH2 0xC3A JUMP JUMPDEST PUSH1 0x40 MLOAD DUP1 SWAP2 SUB SWAP1 RETURN JUMPDEST PUSH2 0x11D PUSH1 0x4 DUP1 CALLDATASIZE SUB DUP2 ADD SWAP1 PUSH2 0x118 SWAP2 SWAP1 PUSH2 0xDAE JUMP JUMPDEST PUSH2 0x282 JUMP JUMPDEST STOP JUMPDEST PUSH2 0x139 PUSH1 0x4 DUP1 CALLDATASIZE SUB DUP2 ADD SWAP1 PUSH2 0x134 SWAP2 SWAP1 PUSH2 0xE0A JUMP JUMPDEST PUSH2 0x3FE JUMP JUMPDEST PUSH1 0x40 MLOAD PUSH2 0x146 SWAP2 SWAP1 PUSH2 0xEF5 JUMP JUMPDEST PUSH1 0x40 MLOAD DUP1 SWAP2 SUB SWAP1 RETURN JUMPDEST PUSH2 0x157 PUSH2 0x55E JUMP JUMPDEST PUSH1 0x40 MLOAD PUSH2 0x164 SWAP2 SWAP1 PUSH2 0xF26 JUMP JUMPDEST PUSH1 0x40 MLOAD DUP1 SWAP2 SUB SWAP1 RETURN JUMPDEST PUSH2 0x187 PUSH1 0x4 DUP1 CALLDATASIZE SUB DUP2 ADD SWAP1 PUSH2 0x182 SWAP2 SWAP1 PUSH2 0xE0A JUMP JUMPDEST PUSH2 0x564 JUMP JUMPDEST STOP JUMPDEST PUSH2 0x1A3 PUSH1 0x4 DUP1 CALLDATASIZE SUB DUP2 ADD SWAP1 PUSH2 0x19E SWAP2 SWAP1 PUSH2 0xE0A JUMP JUMPDEST PUSH2 0x6D4 JUMP JUMPDEST PUSH1 0x40 MLOAD PUSH2 0x1B3 SWAP5 SWAP4 SWAP3 SWAP2 SWAP1 PUSH2 0xF82 JUMP JUMPDEST PUSH1 0x40 MLOAD DUP1 SWAP2 SUB SWAP1 RETURN JUMPDEST PUSH2 0x1D6 PUSH1 0x4 DUP1 CALLDATASIZE SUB DUP2 ADD SWAP1 PUSH2 0x1D1 SWAP2 SWAP1 PUSH2 0xFF3 JUMP JUMPDEST PUSH2 0x73E JUMP JUMPDEST STOP JUMPDEST PUSH2 0x1F2 PUSH1 0x4 DUP1 CALLDATASIZE SUB DUP2 ADD SWAP1 PUSH2 0x1ED SWAP2 SWAP1 PUSH2 0x1033 JUMP JUMPDEST PUSH2 0x8BB JUMP JUMPDEST PUSH1 0x40 MLOAD PUSH2 0x1FF SWAP2 SWAP1 PUSH2 0xF26 JUMP JUMPDEST PUSH1 0x40 MLOAD DUP1 SWAP2 SUB SWAP1 RETURN JUMPDEST PUSH2 0x222 PUSH1 0x4 DUP1 CALLDATASIZE SUB DUP2 ADD SWAP1 PUSH2 0x21D SWAP2 SWAP1 PUSH2 0x1128 JUMP JUMPDEST PUSH2 0x8E0 JUMP JUMPDEST STOP JUMPDEST PUSH1 0x2 PUSH1 0x20 MSTORE DUP2 PUSH1 0x0 MSTORE PUSH1 0x40 PUSH1 0x0 KECCAK256 PUSH1 0x20 MSTORE DUP1 PUSH1 0x0 MSTORE PUSH1 0x40 PUSH1 0x0 KECCAK256 PUSH1 0x0 SWAP2 POP SWAP2 POP SWAP1 SLOAD SWAP1 PUSH2 0x100 EXP SWAP1 DIV PUSH1 0xFF AND DUP2 JUMP JUMPDEST PUSH1 0x3 PUSH1 0x20 MSTORE DUP2 PUSH1 0x0 MSTORE PUSH1 0x40 PUSH1 0x0 KECCAK256 PUSH1 0x20 MSTORE DUP1 PUSH1 0x0 MSTORE PUSH1 0x40 PUSH1 0x0 KECCAK256 PUSH1 0x0 SWAP2 POP SWAP2 POP SWAP1 SLOAD SWAP1 PUSH2 0x100 EXP SWAP1 DIV PUSH1 0xFF AND DUP2 JUMP JUMPDEST PUSH1 0x1 PUSH1 0x0 DUP4 DUP2 MSTORE PUSH1 0x20 ADD SWAP1 DUP2 MSTORE PUSH1 0x20 ADD PUSH1 0x0 KECCAK256 PUSH1 0x0 ADD PUSH1 0x0 SWAP1 SLOAD SWAP1 PUSH2 0x100 EXP SWAP1 DIV PUSH20 0xFFFFFFFFFFFFFFFFFFFFFFFFFFFFFFFFFFFFFFFF AND PUSH20 0xFFFFFFFFFFFFFFFFFFFFFFFFFFFFFFFFFFFFFFFF AND CALLER PUSH20 0xFFFFFFFFFFFFFFFFFFFFFFFFFFFFFFFFFFFFFFFF AND EQ PUSH2 0x326 JUMPI PUSH1 0x40 MLOAD PUSH32 0x8C379A000000000000000000000000000000000000000000000000000000000 DUP2 MSTORE PUSH1 0x4 ADD PUSH2 0x31D SWAP1 PUSH2 0x11F4 JUMP JUMPDEST PUSH1 0x40 MLOAD DUP1 SWAP2 SUB SWAP1 REVERT JUMPDEST PUSH1 0x1 PUSH1 0x0 DUP4 DUP2 MSTORE PUSH1 0x20 ADD SWAP1 DUP2 MSTORE PUSH1 0x20 ADD PUSH1 0x0 KECCAK256 PUSH1 0x0 ADD PUSH1 0x15 SWAP1 SLOAD SWAP1 PUSH2 0x100 EXP SWAP1 DIV PUSH1 0xFF AND PUSH2 0x389 JUMPI PUSH1 0x40 MLOAD PUSH32 0x8C379A000000000000000000000000000000000000000000000000000000000 DUP2 MSTORE PUSH1 0x4 ADD PUSH2 0x380 SWAP1 PUSH2 0x1260 JUMP JUMPDEST PUSH1 0x40 MLOAD DUP1 SWAP2 SUB SWAP1 REVERT JUMPDEST PUSH1 0x0 JUMPDEST DUP2 MLOAD DUP2 LT ISZERO PUSH2 0x3F9 JUMPI PUSH1 0x1 PUSH1 0x2 PUSH1 0x0 DUP6 DUP2 MSTORE PUSH1 0x20 ADD SWAP1 DUP2 MSTORE PUSH1 0x20 ADD PUSH1 0x0 KECCAK256 PUSH1 0x0 DUP5 DUP5 DUP2 MLOAD DUP2 LT PUSH2 0x3BF JUMPI PUSH2 0x3BE PUSH2 0x1280 JUMP JUMPDEST JUMPDEST PUSH1 0x20 MUL PUSH1 0x20 ADD ADD MLOAD DUP2 MSTORE PUSH1 0x20 ADD SWAP1 DUP2 MSTORE PUSH1 0x20 ADD PUSH1 0x0 KECCAK256 PUSH1 0x0 PUSH2 0x100 EXP DUP2 SLOAD DUP2 PUSH1 0xFF MUL NOT AND SWAP1 DUP4 ISZERO ISZERO MUL OR SWAP1 SSTORE POP DUP1 DUP1 PUSH1 0x1 ADD SWAP2 POP POP PUSH2 0x38C JUMP JUMPDEST POP POP POP JUMP JUMPDEST PUSH1 0x60 PUSH1 0x1 PUSH1 0x0 DUP4 DUP2 MSTORE PUSH1 0x20 ADD SWAP1 DUP2 MSTORE PUSH1 0x20 ADD PUSH1 0x0 KECCAK256 PUSH1 0x0 ADD PUSH1 0x14 SWAP1 SLOAD SWAP1 PUSH2 0x100 EXP SWAP1 DIV PUSH1 0xFF AND DUP1 PUSH2 0x450 JUMPI POP PUSH1 0x1 PUSH1 0x0 DUP4 DUP2 MSTORE PUSH1 0x20 ADD SWAP1 DUP2 MSTORE PUSH1 0x20 ADD PUSH1 0x0 KECCAK256 PUSH1 0x0 ADD PUSH1 0x15 SWAP1 SLOAD SWAP1 PUSH2 0x100 EXP SWAP1 DIV PUSH1 0xFF AND ISZERO JUMPDEST PUSH2 0x48F JUMPI PUSH1 0x40 MLOAD PUSH32 0x8C379A000000000000000000000000000000000000000000000000000000000 DUP2 MSTORE PUSH1 0x4 ADD PUSH2 0x486 SWAP1 PUSH2 0x12FB JUMP JUMPDEST PUSH1 0x40 MLOAD DUP1 SWAP2 SUB SWAP1 REVERT JUMPDEST PUSH1 0x0 PUSH1 0x1 PUSH1 0x0 DUP5 DUP2 MSTORE PUSH1 0x20 ADD SWAP1 DUP2 MSTORE PUSH1 0x20 ADD PUSH1 0x0 KECCAK256 PUSH1 0x1 ADD SLOAD SWAP1 POP PUSH1 0x0 DUP2 PUSH8 0xFFFFFFFFFFFFFFFF DUP2 GT ISZERO PUSH2 0x4C6 JUMPI PUSH2 0x4C5 PUSH2 0xC6B JUMP JUMPDEST JUMPDEST PUSH1 0x40 MLOAD SWAP1 DUP1 DUP3 MSTORE DUP1 PUSH1 0x20 MUL PUSH1 0x20 ADD DUP3 ADD PUSH1 0x40 MSTORE DUP1 ISZERO PUSH2 0x4F4 JUMPI DUP2 PUSH1 0x20 ADD PUSH1 0x20 DUP3 MUL DUP1 CALLDATASIZE DUP4 CALLDATACOPY DUP1 DUP3 ADD SWAP2 POP POP SWAP1 POP JUMPDEST POP SWAP1 POP PUSH1 0x0 JUMPDEST DUP3 DUP2 LT ISZERO PUSH2 0x553 JUMPI PUSH1 0x4 PUSH1 0x0 DUP7 DUP2 MSTORE PUSH1 0x20 ADD SWAP1 DUP2 MSTORE PUSH1 0x20 ADD PUSH1 0x0 KECCAK256 PUSH1 0x0 DUP3 DUP2 MSTORE PUSH1 0x20 ADD SWAP1 DUP2 MSTORE PUSH1 0x20 ADD PUSH1 0x0 KECCAK256 SLOAD DUP3 DUP3 DUP2 MLOAD DUP2 LT PUSH2 0x53A JUMPI PUSH2 0x539 PUSH2 0x1280 JUMP JUMPDEST JUMPDEST PUSH1 0x20 MUL PUSH1 0x20 ADD ADD DUP2 DUP2 MSTORE POP POP DUP1 DUP1 PUSH1 0x1 ADD SWAP2 POP POP PUSH2 0x4FA JUMP JUMPDEST POP DUP1 SWAP3 POP POP POP SWAP2 SWAP1 POP JUMP JUMPDEST PUSH1 0x0 SLOAD DUP2 JUMP JUMPDEST PUSH1 0x1 PUSH1 0x0 DUP3 DUP2 MSTORE PUSH1 0x20 ADD SWAP1 DUP2 MSTORE PUSH1 0x20 ADD PUSH1 0x0 KECCAK256 PUSH1 0x0 ADD PUSH1 0x0 SWAP1 SLOAD SWAP1 PUSH2 0x100 EXP SWAP1 DIV PUSH20 0xFFFFFFFFFFFFFFFFFFFFFFFFFFFFFFFFFFFFFFFF AND PUSH20 0xFFFFFFFFFFFFFFFFFFFFFFFFFFFFFFFFFFFFFFFF AND CALLER PUSH20 0xFFFFFFFFFFFFFFFFFFFFFFFFFFFFFFFFFFFFFFFF AND EQ PUSH2 0x608 JUMPI PUSH1 0x40 MLOAD PUSH32 0x8C379A000000000000000000000000000000000000000000000000000000000 DUP2 MSTORE PUSH1 0x4 ADD PUSH2 0x5FF SWAP1 PUSH2 0x1367 JUMP JUMPDEST PUSH1 0x40 MLOAD DUP1 SWAP2 SUB SWAP1 REVERT JUMPDEST PUSH1 0x1 PUSH1 0x0 DUP3 DUP2 MSTORE PUSH1 0x20 ADD SWAP1 DUP2 MSTORE PUSH1 0x20 ADD PUSH1 0x0 KECCAK256 PUSH1 0x0 ADD PUSH1 0x15 SWAP1 SLOAD SWAP1 PUSH2 0x100 EXP SWAP1 DIV PUSH1 0xFF AND PUSH2 0x66B JUMPI PUSH1 0x40 MLOAD PUSH32 0x8C379A000000000000000000000000000000000000000000000000000000000 DUP2 MSTORE PUSH1 0x4 ADD PUSH2 0x662 SWAP1 PUSH2 0x13D3 JUMP JUMPDEST PUSH1 0x40 MLOAD DUP1 SWAP2 SUB SWAP1 REVERT JUMPDEST PUSH1 0x0 PUSH1 0x1 PUSH1 0x0 DUP4 DUP2 MSTORE PUSH1 0x20 ADD SWAP1 DUP2 MSTORE PUSH1 0x20 ADD PUSH1 0x0 KECCAK256 PUSH1 0x0 ADD PUSH1 0x15 PUSH2 0x100 EXP DUP2 SLOAD DUP2 PUSH1 0xFF MUL NOT AND SWAP1 DUP4 ISZERO ISZERO MUL OR SWAP1 SSTORE POP PUSH32 0x703C67C157A1AFB7D386CE5212EE88BF0A690BCA998060E9595EBDFD747100CE DUP2 PUSH1 0x40 MLOAD PUSH2 0x6C9 SWAP2 SWAP1 PUSH2 0xF26 JUMP JUMPDEST PUSH1 0x40 MLOAD DUP1 SWAP2 SUB SWAP1 LOG1 POP JUMP JUMPDEST PUSH1 0x1 PUSH1 0x20 MSTORE DUP1 PUSH1 0x0 MSTORE PUSH1 0x40 PUSH1 0x0 KECCAK256 PUSH1 0x0 SWAP2 POP SWAP1 POP DUP1 PUSH1 0x0 ADD PUSH1 0x0 SWAP1 SLOAD SWAP1 PUSH2 0x100 EXP SWAP1 DIV PUSH20 0xFFFFFFFFFFFFFFFFFFFFFFFFFFFFFFFFFFFFFFFF AND SWAP1 DUP1 PUSH1 0x0 ADD PUSH1 0x14 SWAP1 SLOAD SWAP1 PUSH2 0x100 EXP SWAP1 DIV PUSH1 0xFF AND SWAP1 DUP1 PUSH1 0x0 ADD PUSH1 0x15 SWAP1 SLOAD SWAP1 PUSH2 0x100 EXP SWAP1 DIV PUSH1 0xFF AND SWAP1 DUP1 PUSH1 0x1 ADD SLOAD SWAP1 POP DUP5 JUMP JUMPDEST PUSH1 0x1 DUP2 GT PUSH2 0x781 JUMPI PUSH1 0x40 MLOAD PUSH32 0x8C379A000000000000000000000000000000000000000000000000000000000 DUP2 MSTORE PUSH1 0x4 ADD PUSH2 0x778 SWAP1 PUSH2 0x143F JUMP JUMPDEST PUSH1 0x40 MLOAD DUP1 SWAP2 SUB SWAP1 REVERT JUMPDEST PUSH1 0x40 MLOAD DUP1 PUSH1 0x80 ADD PUSH1 0x40 MSTORE DUP1 CALLER PUSH20 0xFFFFFFFFFFFFFFFFFFFFFFFFFFFFFFFFFFFFFFFF AND DUP2 MSTORE PUSH1 0x20 ADD DUP4 ISZERO ISZERO DUP2 MSTORE PUSH1 0x20 ADD PUSH1 0x1 ISZERO ISZERO DUP2 MSTORE PUSH1 0x20 ADD DUP3 DUP2 MSTORE POP PUSH1 0x1 PUSH1 0x0 DUP1 SLOAD DUP2 MSTORE PUSH1 0x20 ADD SWAP1 DUP2 MSTORE PUSH1 0x20 ADD PUSH1 0x0 KECCAK256 PUSH1 0x0 DUP3 ADD MLOAD DUP2 PUSH1 0x0 ADD PUSH1 0x0 PUSH2 0x100 EXP DUP2 SLOAD DUP2 PUSH20 0xFFFFFFFFFFFFFFFFFFFFFFFFFFFFFFFFFFFFFFFF MUL NOT AND SWAP1 DUP4 PUSH20 0xFFFFFFFFFFFFFFFFFFFFFFFFFFFFFFFFFFFFFFFF AND MUL OR SWAP1 SSTORE POP PUSH1 0x20 DUP3 ADD MLOAD DUP2 PUSH1 0x0 ADD PUSH1 0x14 PUSH2 0x100 EXP DUP2 SLOAD DUP2 PUSH1 0xFF MUL NOT AND SWAP1 DUP4 ISZERO ISZERO MUL OR SWAP1 SSTORE POP PUSH1 0x40 DUP3 ADD MLOAD DUP2 PUSH1 0x0 ADD PUSH1 0x15 PUSH2 0x100 EXP DUP2 SLOAD DUP2 PUSH1 0xFF MUL NOT AND SWAP1 DUP4 ISZERO ISZERO MUL OR SWAP1 SSTORE POP PUSH1 0x60 DUP3 ADD MLOAD DUP2 PUSH1 0x1 ADD SSTORE SWAP1 POP POP PUSH32 0xB447D309FD3B1A27466CDB08CCC02EE5188E9C71FC58AF042BAFE3E0BB451230 PUSH1 0x0 SLOAD CALLER PUSH1 0x40 MLOAD PUSH2 0x898 SWAP3 SWAP2 SWAP1 PUSH2 0x145F JUMP JUMPDEST PUSH1 0x40 MLOAD DUP1 SWAP2 SUB SWAP1 LOG1 PUSH1 0x0 DUP1 DUP2 SLOAD DUP1 SWAP3 SWAP2 SWAP1 PUSH2 0x8B2 SWAP1 PUSH2 0x14B7 JUMP JUMPDEST SWAP2 SWAP1 POP SSTORE POP POP POP JUMP JUMPDEST PUSH1 0x4 PUSH1 0x20 MSTORE DUP2 PUSH1 0x0 MSTORE PUSH1 0x40 PUSH1 0x0 KECCAK256 PUSH1 0x20 MSTORE DUP1 PUSH1 0x0 MSTORE PUSH1 0x40 PUSH1 0x0 KECCAK256 PUSH1 0x0 SWAP2 POP SWAP2 POP POP SLOAD DUP2 JUMP JUMPDEST PUSH1 0x1 PUSH1 0x0 DUP5 DUP2 MSTORE PUSH1 0x20 ADD SWAP1 DUP2 MSTORE PUSH1 0x20 ADD PUSH1 0x0 KECCAK256 PUSH1 0x0 ADD PUSH1 0x15 SWAP1 SLOAD SWAP1 PUSH2 0x100 EXP SWAP1 DIV PUSH1 0xFF AND PUSH2 0x943 JUMPI PUSH1 0x40 MLOAD PUSH32 0x8C379A000000000000000000000000000000000000000000000000000000000 DUP2 MSTORE PUSH1 0x4 ADD PUSH2 0x93A SWAP1 PUSH2 0x1260 JUMP JUMPDEST PUSH1 0x40 MLOAD DUP1 SWAP2 SUB SWAP1 REVERT JUMPDEST PUSH1 0x1 PUSH1 0x0 DUP5 DUP2 MSTORE PUSH1 0x20 ADD SWAP1 DUP2 MSTORE PUSH1 0x20 ADD PUSH1 0x0 KECCAK256 PUSH1 0x1 ADD SLOAD DUP2 LT PUSH2 0x99B JUMPI PUSH1 0x40 MLOAD PUSH32 0x8C379A000000000000000000000000000000000000000000000000000000000 DUP2 MSTORE PUSH1 0x4 ADD PUSH2 0x992 SWAP1 PUSH2 0x154B JUMP JUMPDEST PUSH1 0x40 MLOAD DUP1 SWAP2 SUB SWAP1 REVERT JUMPDEST PUSH1 0x0 DUP3 PUSH1 0x40 MLOAD PUSH1 0x20 ADD PUSH2 0x9AE SWAP2 SWAP1 PUSH2 0x15DC JUMP JUMPDEST PUSH1 0x40 MLOAD PUSH1 0x20 DUP2 DUP4 SUB SUB DUP2 MSTORE SWAP1 PUSH1 0x40 MSTORE DUP1 MLOAD SWAP1 PUSH1 0x20 ADD KECCAK256 SWAP1 POP PUSH1 0x2 PUSH1 0x0 DUP6 DUP2 MSTORE PUSH1 0x20 ADD SWAP1 DUP2 MSTORE PUSH1 0x20 ADD PUSH1 0x0 KECCAK256 PUSH1 0x0 DUP3 DUP2 MSTORE PUSH1 0x20 ADD SWAP1 DUP2 MSTORE PUSH1 0x20 ADD PUSH1 0x0 KECCAK256 PUSH1 0x0 SWAP1 SLOAD SWAP1 PUSH2 0x100 EXP SWAP1 DIV PUSH1 0xFF AND PUSH2 0xA37 JUMPI PUSH1 0x40 MLOAD PUSH32 0x8C379A000000000000000000000000000000000000000000000000000000000 DUP2 MSTORE PUSH1 0x4 ADD PUSH2 0xA2E SWAP1 PUSH2 0x163F JUMP JUMPDEST PUSH1 0x40 MLOAD DUP1 SWAP2 SUB SWAP1 REVERT JUMPDEST PUSH1 0x3 PUSH1 0x0 DUP6 DUP2 MSTORE PUSH1 0x20 ADD SWAP1 DUP2 MSTORE PUSH1 0x20 ADD PUSH1 0x0 KECCAK256 PUSH1 0x0 DUP3 DUP2 MSTORE PUSH1 0x20 ADD SWAP1 DUP2 MSTORE PUSH1 0x20 ADD PUSH1 0x0 KECCAK256 PUSH1 0x0 SWAP1 SLOAD SWAP1 PUSH2 0x100 EXP SWAP1 DIV PUSH1 0xFF AND ISZERO PUSH2 0xAA9 JUMPI PUSH1 0x40 MLOAD PUSH32 0x8C379A000000000000000000000000000000000000000000000000000000000 DUP2 MSTORE PUSH1 0x4 ADD PUSH2 0xAA0 SWAP1 PUSH2 0x16AB JUMP JUMPDEST PUSH1 0x40 MLOAD DUP1 SWAP2 SUB SWAP1 REVERT JUMPDEST PUSH1 0x1 PUSH1 0x3 PUSH1 0x0 DUP7 DUP2 MSTORE PUSH1 0x20 ADD SWAP1 DUP2 MSTORE PUSH1 0x20 ADD PUSH1 0x0 KECCAK256 PUSH1 0x0 DUP4 DUP2 MSTORE PUSH1 0x20 ADD SWAP1 DUP2 MSTORE PUSH1 0x20 ADD PUSH1 0x0 KECCAK256 PUSH1 0x0 PUSH2 0x100 EXP DUP2 SLOAD DUP2 PUSH1 0xFF MUL NOT AND SWAP1 DUP4 ISZERO ISZERO MUL OR SWAP1 SSTORE POP PUSH1 0x4 PUSH1 0x0 DUP6 DUP2 MSTORE PUSH1 0x20 ADD SWAP1 DUP2 MSTORE PUSH1 0x20 ADD PUSH1 0x0 KECCAK256 PUSH1 0x0 DUP4 DUP2 MSTORE PUSH1 0x20 ADD SWAP1 DUP2 MSTORE PUSH1 0x20 ADD PUSH1 0x0 KECCAK256 PUSH1 0x0 DUP2 SLOAD DUP1 SWAP3 SWAP2 SWAP1 PUSH2 0xB1B SWAP1 PUSH2 0x14B7 JUMP JUMPDEST SWAP2 SWAP1 POP SSTORE POP PUSH32 0x5D4760119C8E8650149AAC097D38C70515DFCE015031561AD115606533E479BE DUP5 DUP4 PUSH1 0x40 MLOAD PUSH2 0xB51 SWAP3 SWAP2 SWAP1 PUSH2 0x16CB JUMP JUMPDEST PUSH1 0x40 MLOAD DUP1 SWAP2 SUB SWAP1 LOG1 POP POP POP POP JUMP JUMPDEST PUSH1 0x0 PUSH1 0x40 MLOAD SWAP1 POP SWAP1 JUMP JUMPDEST PUSH1 0x0 DUP1 REVERT JUMPDEST PUSH1 0x0 DUP1 REVERT JUMPDEST PUSH1 0x0 DUP2 SWAP1 POP SWAP2 SWAP1 POP JUMP JUMPDEST PUSH2 0xB86 DUP2 PUSH2 0xB73 JUMP JUMPDEST DUP2 EQ PUSH2 0xB91 JUMPI PUSH1 0x0 DUP1 REVERT JUMPDEST POP JUMP JUMPDEST PUSH1 0x0 DUP2 CALLDATALOAD SWAP1 POP PUSH2 0xBA3 DUP2 PUSH2 0xB7D JUMP JUMPDEST SWAP3 SWAP2 POP POP JUMP JUMPDEST PUSH1 0x0 DUP2 SWAP1 POP SWAP2 SWAP1 POP JUMP JUMPDEST PUSH2 0xBBC DUP2 PUSH2 0xBA9 JUMP JUMPDEST DUP2 EQ PUSH2 0xBC7 JUMPI PUSH1 0x0 DUP1 REVERT JUMPDEST POP JUMP JUMPDEST PUSH1 0x0 DUP2 CALLDATALOAD SWAP1 POP PUSH2 0xBD9 DUP2 PUSH2 0xBB3 JUMP JUMPDEST SWAP3 SWAP2 POP POP JUMP JUMPDEST PUSH1 0x0 DUP1 PUSH1 0x40 DUP4 DUP6 SUB SLT ISZERO PUSH2 0xBF6 JUMPI PUSH2 0xBF5 PUSH2 0xB69 JUMP JUMPDEST JUMPDEST PUSH1 0x0 PUSH2 0xC04 DUP6 DUP3 DUP7 ADD PUSH2 0xB94 JUMP JUMPDEST SWAP3 POP POP PUSH1 0x20 PUSH2 0xC15 DUP6 DUP3 DUP7 ADD PUSH2 0xBCA JUMP JUMPDEST SWAP2 POP POP SWAP3 POP SWAP3 SWAP1 POP JUMP JUMPDEST PUSH1 0x0 DUP2 ISZERO ISZERO SWAP1 POP SWAP2 SWAP1 POP JUMP JUMPDEST PUSH2 0xC34 DUP2 PUSH2 0xC1F JUMP JUMPDEST DUP3 MSTORE POP POP JUMP JUMPDEST PUSH1 0x0 PUSH1 0x20 DUP3 ADD SWAP1 POP PUSH2 0xC4F PUSH1 0x0 DUP4 ADD DUP5 PUSH2 0xC2B JUMP JUMPDEST SWAP3 SWAP2 POP POP JUMP JUMPDEST PUSH1 0x0 DUP1 REVERT JUMPDEST PUSH1 0x0 PUSH1 0x1F NOT PUSH1 0x1F DUP4 ADD AND SWAP1 POP SWAP2 SWAP1 POP JUMP JUMPDEST PUSH32 0x4E487B7100000000000000000000000000000000000000000000000000000000 PUSH1 0x0 MSTORE PUSH1 0x41 PUSH1 0x4 MSTORE PUSH1 0x24 PUSH1 0x0 REVERT JUMPDEST PUSH2 0xCA3 DUP3 PUSH2 0xC5A JUMP JUMPDEST DUP2 ADD DUP2 DUP2 LT PUSH8 0xFFFFFFFFFFFFFFFF DUP3 GT OR ISZERO PUSH2 0xCC2 JUMPI PUSH2 0xCC1 PUSH2 0xC6B JUMP JUMPDEST JUMPDEST DUP1 PUSH1 0x40 MSTORE POP POP POP JUMP JUMPDEST PUSH1 0x0 PUSH2 0xCD5 PUSH2 0xB5F JUMP JUMPDEST SWAP1 POP PUSH2 0xCE1 DUP3 DUP3 PUSH2 0xC9A JUMP JUMPDEST SWAP2 SWAP1 POP JUMP JUMPDEST PUSH1 0x0 PUSH8 0xFFFFFFFFFFFFFFFF DUP3 GT ISZERO PUSH2 0xD01 JUMPI PUSH2 0xD00 PUSH2 0xC6B JUMP JUMPDEST JUMPDEST PUSH1 0x20 DUP3 MUL SWAP1 POP PUSH1 0x20 DUP2 ADD SWAP1 POP SWAP2 SWAP1 POP JUMP JUMPDEST PUSH1 0x0 DUP1 REVERT JUMPDEST PUSH1 0x0 PUSH2 0xD2A PUSH2 0xD25 DUP5 PUSH2 0xCE6 JUMP JUMPDEST PUSH2 0xCCB JUMP JUMPDEST SWAP1 POP DUP1 DUP4 DUP3 MSTORE PUSH1 0x20 DUP3 ADD SWAP1 POP PUSH1 0x20 DUP5 MUL DUP4 ADD DUP6 DUP2 GT ISZERO PUSH2 0xD4D JUMPI PUSH2 0xD4C PUSH2 0xD12 JUMP JUMPDEST JUMPDEST DUP4 JUMPDEST DUP2 DUP2 LT ISZERO PUSH2 0xD76 JUMPI DUP1 PUSH2 0xD62 DUP9 DUP3 PUSH2 0xBCA JUMP JUMPDEST DUP5 MSTORE PUSH1 0x20 DUP5 ADD SWAP4 POP POP PUSH1 0x20 DUP2 ADD SWAP1 POP PUSH2 0xD4F JUMP JUMPDEST POP POP POP SWAP4 SWAP3 POP POP POP JUMP JUMPDEST PUSH1 0x0 DUP3 PUSH1 0x1F DUP4 ADD SLT PUSH2 0xD95 JUMPI PUSH2 0xD94 PUSH2 0xC55 JUMP JUMPDEST JUMPDEST DUP2 CALLDATALOAD PUSH2 0xDA5 DUP5 DUP3 PUSH1 0x20 DUP7 ADD PUSH2 0xD17 JUMP JUMPDEST SWAP2 POP POP SWAP3 SWAP2 POP POP JUMP JUMPDEST PUSH1 0x0 DUP1 PUSH1 0x40 DUP4 DUP6 SUB SLT ISZERO PUSH2 0xDC5 JUMPI PUSH2 0xDC4 PUSH2 0xB69 JUMP JUMPDEST JUMPDEST PUSH1 0x0 PUSH2 0xDD3 DUP6 DUP3 DUP7 ADD PUSH2 0xB94 JUMP JUMPDEST SWAP3 POP POP PUSH1 0x20 DUP4 ADD CALLDATALOAD PUSH8 0xFFFFFFFFFFFFFFFF DUP2 GT ISZERO PUSH2 0xDF4 JUMPI PUSH2 0xDF3 PUSH2 0xB6E JUMP JUMPDEST JUMPDEST PUSH2 0xE00 DUP6 DUP3 DUP7 ADD PUSH2 0xD80 JUMP JUMPDEST SWAP2 POP POP SWAP3 POP SWAP3 SWAP1 POP JUMP JUMPDEST PUSH1 0x0 PUSH1 0x20 DUP3 DUP5 SUB SLT ISZERO PUSH2 0xE20 JUMPI PUSH2 0xE1F PUSH2 0xB69 JUMP JUMPDEST JUMPDEST PUSH1 0x0 PUSH2 0xE2E DUP5 DUP3 DUP6 ADD PUSH2 0xB94 JUMP JUMPDEST SWAP2 POP POP SWAP3 SWAP2 POP POP JUMP JUMPDEST PUSH1 0x0 DUP2 MLOAD SWAP1 POP SWAP2 SWAP1 POP JUMP JUMPDEST PUSH1 0x0 DUP3 DUP3 MSTORE PUSH1 0x20 DUP3 ADD SWAP1 POP SWAP3 SWAP2 POP POP JUMP JUMPDEST PUSH1 0x0 DUP2 SWAP1 POP PUSH1 0x20 DUP3 ADD SWAP1 POP SWAP2 SWAP1 POP JUMP JUMPDEST PUSH2 0xE6C DUP2 PUSH2 0xB73 JUMP JUMPDEST DUP3 MSTORE POP POP JUMP JUMPDEST PUSH1 0x0 PUSH2 0xE7E DUP4 DUP4 PUSH2 0xE63 JUMP JUMPDEST PUSH1 0x20 DUP4 ADD SWAP1 POP SWAP3 SWAP2 POP POP JUMP JUMPDEST PUSH1 0x0 PUSH1 0x20 DUP3 ADD SWAP1 POP SWAP2 SWAP1 POP JUMP JUMPDEST PUSH1 0x0 PUSH2 0xEA2 DUP3 PUSH2 0xE37 JUMP JUMPDEST PUSH2 0xEAC DUP2 DUP6 PUSH2 0xE42 JUMP JUMPDEST SWAP4 POP PUSH2 0xEB7 DUP4 PUSH2 0xE53 JUMP JUMPDEST DUP1 PUSH1 0x0 JUMPDEST DUP4 DUP2 LT ISZERO PUSH2 0xEE8 JUMPI DUP2 MLOAD PUSH2 0xECF DUP9 DUP3 PUSH2 0xE72 JUMP JUMPDEST SWAP8 POP PUSH2 0xEDA DUP4 PUSH2 0xE8A JUMP JUMPDEST SWAP3 POP POP PUSH1 0x1 DUP2 ADD SWAP1 POP PUSH2 0xEBB JUMP JUMPDEST POP DUP6 SWAP4 POP POP POP POP SWAP3 SWAP2 POP POP JUMP JUMPDEST PUSH1 0x0 PUSH1 0x20 DUP3 ADD SWAP1 POP DUP2 DUP2 SUB PUSH1 0x0 DUP4 ADD MSTORE PUSH2 0xF0F DUP2 DUP5 PUSH2 0xE97 JUMP JUMPDEST SWAP1 POP SWAP3 SWAP2 POP POP JUMP JUMPDEST PUSH2 0xF20 DUP2 PUSH2 0xB73 JUMP JUMPDEST DUP3 MSTORE POP POP JUMP JUMPDEST PUSH1 0x0 PUSH1 0x20 DUP3 ADD SWAP1 POP PUSH2 0xF3B PUSH1 0x0 DUP4 ADD DUP5 PUSH2 0xF17 JUMP JUMPDEST SWAP3 SWAP2 POP POP JUMP JUMPDEST PUSH1 0x0 PUSH20 0xFFFFFFFFFFFFFFFFFFFFFFFFFFFFFFFFFFFFFFFF DUP3 AND SWAP1 POP SWAP2 SWAP1 POP JUMP JUMPDEST PUSH1 0x0 PUSH2 0xF6C DUP3 PUSH2 0xF41 JUMP JUMPDEST SWAP1 POP SWAP2 SWAP1 POP JUMP JUMPDEST PUSH2 0xF7C DUP2 PUSH2 0xF61 JUMP JUMPDEST DUP3 MSTORE POP POP JUMP JUMPDEST PUSH1 0x0 PUSH1 0x80 DUP3 ADD SWAP1 POP PUSH2 0xF97 PUSH1 0x0 DUP4 ADD DUP8 PUSH2 0xF73 JUMP JUMPDEST PUSH2 0xFA4 PUSH1 0x20 DUP4 ADD DUP7 PUSH2 0xC2B JUMP JUMPDEST PUSH2 0xFB1 PUSH1 0x40 DUP4 ADD DUP6 PUSH2 0xC2B JUMP JUMPDEST PUSH2 0xFBE PUSH1 0x60 DUP4 ADD DUP5 PUSH2 0xF17 JUMP JUMPDEST SWAP6 SWAP5 POP POP POP POP POP JUMP JUMPDEST PUSH2 0xFD0 DUP2 PUSH2 0xC1F JUMP JUMPDEST DUP2 EQ PUSH2 0xFDB JUMPI PUSH1 0x0 DUP1 REVERT JUMPDEST POP JUMP JUMPDEST PUSH1 0x0 DUP2 CALLDATALOAD SWAP1 POP PUSH2 0xFED DUP2 PUSH2 0xFC7 JUMP JUMPDEST SWAP3 SWAP2 POP POP JUMP JUMPDEST PUSH1 0x0 DUP1 PUSH1 0x40 DUP4 DUP6 SUB SLT ISZERO PUSH2 0x100A JUMPI PUSH2 0x1009 PUSH2 0xB69 JUMP JUMPDEST JUMPDEST PUSH1 0x0 PUSH2 0x1018 DUP6 DUP3 DUP7 ADD PUSH2 0xFDE JUMP JUMPDEST SWAP3 POP POP PUSH1 0x20 PUSH2 0x1029 DUP6 DUP3 DUP7 ADD PUSH2 0xB94 JUMP JUMPDEST SWAP2 POP POP SWAP3 POP SWAP3 SWAP1 POP JUMP JUMPDEST PUSH1 0x0 DUP1 PUSH1 0x40 DUP4 DUP6 SUB SLT ISZERO PUSH2 0x104A JUMPI PUSH2 0x1049 PUSH2 0xB69 JUMP JUMPDEST JUMPDEST PUSH1 0x0 PUSH2 0x1058 DUP6 DUP3 DUP7 ADD PUSH2 0xB94 JUMP JUMPDEST SWAP3 POP POP PUSH1 0x20 PUSH2 0x1069 DUP6 DUP3 DUP7 ADD PUSH2 0xB94 JUMP JUMPDEST SWAP2 POP POP SWAP3 POP SWAP3 SWAP1 POP JUMP JUMPDEST PUSH1 0x0 DUP1 REVERT JUMPDEST PUSH1 0x0 PUSH8 0xFFFFFFFFFFFFFFFF DUP3 GT ISZERO PUSH2 0x1093 JUMPI PUSH2 0x1092 PUSH2 0xC6B JUMP JUMPDEST JUMPDEST PUSH2 0x109C DUP3 PUSH2 0xC5A JUMP JUMPDEST SWAP1 POP PUSH1 0x20 DUP2 ADD SWAP1 POP SWAP2 SWAP1 POP JUMP JUMPDEST DUP3 DUP2 DUP4 CALLDATACOPY PUSH1 0x0 DUP4 DUP4 ADD MSTORE POP POP POP JUMP JUMPDEST PUSH1 0x0 PUSH2 0x10CB PUSH2 0x10C6 DUP5 PUSH2 0x1078 JUMP JUMPDEST PUSH2 0xCCB JUMP JUMPDEST SWAP1 POP DUP3 DUP2 MSTORE PUSH1 0x20 DUP2 ADD DUP5 DUP5 DUP5 ADD GT ISZERO PUSH2 0x10E7 JUMPI PUSH2 0x10E6 PUSH2 0x1073 JUMP JUMPDEST JUMPDEST PUSH2 0x10F2 DUP5 DUP3 DUP6 PUSH2 0x10A9 JUMP JUMPDEST POP SWAP4 SWAP3 POP POP POP JUMP JUMPDEST PUSH1 0x0 DUP3 PUSH1 0x1F DUP4 ADD SLT PUSH2 0x110F JUMPI PUSH2 0x110E PUSH2 0xC55 JUMP JUMPDEST JUMPDEST DUP2 CALLDATALOAD PUSH2 0x111F DUP5 DUP3 PUSH1 0x20 DUP7 ADD PUSH2 0x10B8 JUMP JUMPDEST SWAP2 POP POP SWAP3 SWAP2 POP POP JUMP JUMPDEST PUSH1 0x0 DUP1 PUSH1 0x0 PUSH1 0x60 DUP5 DUP7 SUB SLT ISZERO PUSH2 0x1141 JUMPI PUSH2 0x1140 PUSH2 0xB69 JUMP JUMPDEST JUMPDEST PUSH1 0x0 PUSH2 0x114F DUP7 DUP3 DUP8 ADD PUSH2 0xB94 JUMP JUMPDEST SWAP4 POP POP PUSH1 0x20 DUP5 ADD CALLDATALOAD PUSH8 0xFFFFFFFFFFFFFFFF DUP2 GT ISZERO PUSH2 0x1170 JUMPI PUSH2 0x116F PUSH2 0xB6E JUMP JUMPDEST JUMPDEST PUSH2 0x117C DUP7 DUP3 DUP8 ADD PUSH2 0x10FA JUMP JUMPDEST SWAP3 POP POP PUSH1 0x40 PUSH2 0x118D DUP7 DUP3 DUP8 ADD PUSH2 0xB94 JUMP JUMPDEST SWAP2 POP POP SWAP3 POP SWAP3 POP SWAP3 JUMP JUMPDEST PUSH1 0x0 DUP3 DUP3 MSTORE PUSH1 0x20 DUP3 ADD SWAP1 POP SWAP3 SWAP2 POP POP JUMP JUMPDEST PUSH32 0x4F6E6C7920706F6C6C2063726561746F722063616E2061646420746F6B656E73 PUSH1 0x0 DUP3 ADD MSTORE POP JUMP JUMPDEST PUSH1 0x0 PUSH2 0x11DE PUSH1 0x20 DUP4 PUSH2 0x1197 JUMP JUMPDEST SWAP2 POP PUSH2 0x11E9 DUP3 PUSH2 0x11A8 JUMP JUMPDEST PUSH1 0x20 DUP3 ADD SWAP1 POP SWAP2 SWAP1 POP JUMP JUMPDEST PUSH1 0x0 PUSH1 0x20 DUP3 ADD SWAP1 POP DUP2 DUP2 SUB PUSH1 0x0 DUP4 ADD MSTORE PUSH2 0x120D DUP2 PUSH2 0x11D1 JUMP JUMPDEST SWAP1 POP SWAP2 SWAP1 POP JUMP JUMPDEST PUSH32 0x506F6C6C20697320636C6F736564000000000000000000000000000000000000 PUSH1 0x0 DUP3 ADD MSTORE POP JUMP JUMPDEST PUSH1 0x0 PUSH2 0x124A PUSH1 0xE DUP4 PUSH2 0x1197 JUMP JUMPDEST SWAP2 POP PUSH2 0x1255 DUP3 PUSH2 0x1214 JUMP JUMPDEST PUSH1 0x20 DUP3 ADD SWAP1 POP SWAP2 SWAP1 POP JUMP JUMPDEST PUSH1 0x0 PUSH1 0x20 DUP3 ADD SWAP1 POP DUP2 DUP2 SUB PUSH1 0x0 DUP4 ADD MSTORE PUSH2 0x1279 DUP2 PUSH2 0x123D JUMP JUMPDEST SWAP1 POP SWAP2 SWAP1 POP JUMP JUMPDEST PUSH32 0x4E487B7100000000000000000000000000000000000000000000000000000000 PUSH1 0x0 MSTORE PUSH1 0x32 PUSH1 0x4 MSTORE PUSH1 0x24 PUSH1 0x0 REVERT JUMPDEST PUSH32 0x4C69766520726573756C7473206E6F7420616C6C6F776564207965742E000000 PUSH1 0x0 DUP3 ADD MSTORE POP JUMP JUMPDEST PUSH1 0x0 PUSH2 0x12E5 PUSH1 0x1D DUP4 PUSH2 0x1197 JUMP JUMPDEST SWAP2 POP PUSH2 0x12F0 DUP3 PUSH2 0x12AF JUMP JUMPDEST PUSH1 0x20 DUP3 ADD SWAP1 POP SWAP2 SWAP1 POP JUMP JUMPDEST PUSH1 0x0 PUSH1 0x20 DUP3 ADD SWAP1 POP DUP2 DUP2 SUB PUSH1 0x0 DUP4 ADD MSTORE PUSH2 0x1314 DUP2 PUSH2 0x12D8 JUMP JUMPDEST SWAP1 POP SWAP2 SWAP1 POP JUMP JUMPDEST PUSH32 0x4E6F742074686520706F6C6C2063726561746F72000000000000000000000000 PUSH1 0x0 DUP3 ADD MSTORE POP JUMP JUMPDEST PUSH1 0x0 PUSH2 0x1351 PUSH1 0x14 DUP4 PUSH2 0x1197 JUMP JUMPDEST SWAP2 POP PUSH2 0x135C DUP3 PUSH2 0x131B JUMP JUMPDEST PUSH1 0x20 DUP3 ADD SWAP1 POP SWAP2 SWAP1 POP JUMP JUMPDEST PUSH1 0x0 PUSH1 0x20 DUP3 ADD SWAP1 POP DUP2 DUP2 SUB PUSH1 0x0 DUP4 ADD MSTORE PUSH2 0x1380 DUP2 PUSH2 0x1344 JUMP JUMPDEST SWAP1 POP SWAP2 SWAP1 POP JUMP JUMPDEST PUSH32 0x506F6C6C20616C726561647920636C6F73656400000000000000000000000000 PUSH1 0x0 DUP3 ADD MSTORE POP JUMP JUMPDEST PUSH1 0x0 PUSH2 0x13BD PUSH1 0x13 DUP4 PUSH2 0x1197 JUMP JUMPDEST SWAP2 POP PUSH2 0x13C8 DUP3 PUSH2 0x1387 JUMP JUMPDEST PUSH1 0x20 DUP3 ADD SWAP1 POP SWAP2 SWAP1 POP JUMP JUMPDEST PUSH1 0x0 PUSH1 0x20 DUP3 ADD SWAP1 POP DUP2 DUP2 SUB PUSH1 0x0 DUP4 ADD MSTORE PUSH2 0x13EC DUP2 PUSH2 0x13B0 JUMP JUMPDEST SWAP1 POP SWAP2 SWAP1 POP JUMP JUMPDEST PUSH32 0x4D7573742068617665206174206C656173742032206F7074696F6E7300000000 PUSH1 0x0 DUP3 ADD MSTORE POP JUMP JUMPDEST PUSH1 0x0 PUSH2 0x1429 PUSH1 0x1C DUP4 PUSH2 0x1197 JUMP JUMPDEST SWAP2 POP PUSH2 0x1434 DUP3 PUSH2 0x13F3 JUMP JUMPDEST PUSH1 0x20 DUP3 ADD SWAP1 POP SWAP2 SWAP1 POP JUMP JUMPDEST PUSH1 0x0 PUSH1 0x20 DUP3 ADD SWAP1 POP DUP2 DUP2 SUB PUSH1 0x0 DUP4 ADD MSTORE PUSH2 0x1458 DUP2 PUSH2 0x141C JUMP JUMPDEST SWAP1 POP SWAP2 SWAP1 POP JUMP JUMPDEST PUSH1 0x0 PUSH1 0x40 DUP3 ADD SWAP1 POP PUSH2 0x1474 PUSH1 0x0 DUP4 ADD DUP6 PUSH2 0xF17 JUMP JUMPDEST PUSH2 0x1481 PUSH1 0x20 DUP4 ADD DUP5 PUSH2 0xF73 JUMP JUMPDEST SWAP4 SWAP3 POP POP POP JUMP JUMPDEST PUSH32 0x4E487B7100000000000000000000000000000000000000000000000000000000 PUSH1 0x0 MSTORE PUSH1 0x11 PUSH1 0x4 MSTORE PUSH1 0x24 PUSH1 0x0 REVERT JUMPDEST PUSH1 0x0 PUSH2 0x14C2 DUP3 PUSH2 0xB73 JUMP JUMPDEST SWAP2 POP PUSH32 0xFFFFFFFFFFFFFFFFFFFFFFFFFFFFFFFFFFFFFFFFFFFFFFFFFFFFFFFFFFFFFFFF DUP3 SUB PUSH2 0x14F4 JUMPI PUSH2 0x14F3 PUSH2 0x1488 JUMP JUMPDEST JUMPDEST PUSH1 0x1 DUP3 ADD SWAP1 POP SWAP2 SWAP1 POP JUMP JUMPDEST PUSH32 0x496E76616C6964206F7074696F6E000000000000000000000000000000000000 PUSH1 0x0 DUP3 ADD MSTORE POP JUMP JUMPDEST PUSH1 0x0 PUSH2 0x1535 PUSH1 0xE DUP4 PUSH2 0x1197 JUMP JUMPDEST SWAP2 POP PUSH2 0x1540 DUP3 PUSH2 0x14FF JUMP JUMPDEST PUSH1 0x20 DUP3 ADD SWAP1 POP SWAP2 SWAP1 POP JUMP JUMPDEST PUSH1 0x0 PUSH1 0x20 DUP3 ADD SWAP1 POP DUP2 DUP2 SUB PUSH1 0x0 DUP4 ADD MSTORE PUSH2 0x1564 DUP2 PUSH2 0x1528 JUMP JUMPDEST SWAP1 POP SWAP2 SWAP1 POP JUMP JUMPDEST PUSH1 0x0 DUP2 MLOAD SWAP1 POP SWAP2 SWAP1 POP JUMP JUMPDEST PUSH1 0x0 DUP2 SWAP1 POP SWAP3 SWAP2 POP POP JUMP JUMPDEST PUSH1 0x0 JUMPDEST DUP4 DUP2 LT ISZERO PUSH2 0x159F JUMPI DUP1 DUP3 ADD MLOAD DUP2 DUP5 ADD MSTORE PUSH1 0x20 DUP2 ADD SWAP1 POP PUSH2 0x1584 JUMP JUMPDEST PUSH1 0x0 DUP5 DUP5 ADD MSTORE POP POP POP POP JUMP JUMPDEST PUSH1 0x0 PUSH2 0x15B6 DUP3 PUSH2 0x156B JUMP JUMPDEST PUSH2 0x15C0 DUP2 DUP6 PUSH2 0x1576 JUMP JUMPDEST SWAP4 POP PUSH2 0x15D0 DUP2 DUP6 PUSH1 0x20 DUP7 ADD PUSH2 0x1581 JUMP JUMPDEST DUP1 DUP5 ADD SWAP2 POP POP SWAP3 SWAP2 POP POP JUMP JUMPDEST PUSH1 0x0 PUSH2 0x15E8 DUP3 DUP5 PUSH2 0x15AB JUMP JUMPDEST SWAP2 POP DUP2 SWAP1 POP SWAP3 SWAP2 POP POP JUMP JUMPDEST PUSH32 0x496E76616C696420746F6B656E00000000000000000000000000000000000000 PUSH1 0x0 DUP3 ADD MSTORE POP JUMP JUMPDEST PUSH1 0x0 PUSH2 0x1629 PUSH1 0xD DUP4 PUSH2 0x1197 JUMP JUMPDEST SWAP2 POP PUSH2 0x1634 DUP3 PUSH2 0x15F3 JUMP JUMPDEST PUSH1 0x20 DUP3 ADD SWAP1 POP SWAP2 SWAP1 POP JUMP JUMPDEST PUSH1 0x0 PUSH1 0x20 DUP3 ADD SWAP1 POP DUP2 DUP2 SUB PUSH1 0x0 DUP4 ADD MSTORE PUSH2 0x1658 DUP2 PUSH2 0x161C JUMP JUMPDEST SWAP1 POP SWAP2 SWAP1 POP JUMP JUMPDEST PUSH32 0x546F6B656E20616C726561647920757365640000000000000000000000000000 PUSH1 0x0 DUP3 ADD MSTORE POP JUMP JUMPDEST PUSH1 0x0 PUSH2 0x1695 PUSH1 0x12 DUP4 PUSH2 0x1197 JUMP JUMPDEST SWAP2 POP PUSH2 0x16A0 DUP3 PUSH2 0x165F JUMP JUMPDEST PUSH1 0x20 DUP3 ADD SWAP1 POP SWAP2 SWAP1 POP JUMP JUMPDEST PUSH1 0x0 PUSH1 0x20 DUP3 ADD SWAP1 POP DUP2 DUP2 SUB PUSH1 0x0 DUP4 ADD MSTORE PUSH2 0x16C4 DUP2 PUSH2 0x1688 JUMP JUMPDEST SWAP1 POP SWAP2 SWAP1 POP JUMP JUMPDEST PUSH1 0x0 PUSH1 0x40 DUP3 ADD SWAP1 POP PUSH2 0x16E0 PUSH1 0x0 DUP4 ADD DUP6 PUSH2 0xF17 JUMP JUMPDEST PUSH2 0x16ED PUSH1 0x20 DUP4 ADD DUP5 PUSH2 0xF17 JUMP JUMPDEST SWAP4 SWAP3 POP POP POP JUMP INVALID LOG2 PUSH5 0x6970667358 0x22 SLT KECCAK256 0xD3 0xED MSIZE 0x21 0xBE SMOD DUP4 0xBE ISZERO 0xAF 0xC3 0xDA PUSH28 0xEDD5299394EC557BAA95D6375A47C510917F1964736F6C634300081C STOP CALLER "},"methodIdentifiers":{"addValidTokens(uint256,bytes32[])":"36fdbb40","closePoll(uint256)":"9534e637","createPoll(bool,uint256)":"c3fec13c","getResults(uint256)":"81a60c0d","pollCount()":"9207891d","polls(uint256)":"ac2f0074","usedTokens(uint256,bytes32)":"1cb8bd4a","validTokens(uint256,bytes32)":"0a0e207e","vote(uint256,string,uint256)":"f0f45457","voteCounts(uint256,uint256)":"d2daa1c2"}}}}}